{
  "contractName": "AssertMath",
  "abi": [
    {
      "constant": false,
      "inputs": [
        {
          "internalType": "uint256",
          "name": "a",
          "type": "uint256"
        },
        {
          "internalType": "uint256",
          "name": "b",
          "type": "uint256"
        }
      ],
      "name": "addEx",
      "outputs": [
        {
          "internalType": "uint256",
          "name": "",
          "type": "uint256"
        }
      ],
      "payable": false,
      "stateMutability": "nonpayable",
      "type": "function"
    },
    {
      "constant": false,
      "inputs": [
        {
          "internalType": "uint256",
          "name": "a",
          "type": "uint256"
        },
        {
          "internalType": "uint256",
          "name": "b",
          "type": "uint256"
        }
      ],
      "name": "multiplyEx",
      "outputs": [
        {
          "internalType": "uint256",
          "name": "",
          "type": "uint256"
        }
      ],
      "payable": false,
      "stateMutability": "nonpayable",
      "type": "function"
    },
    {
      "constant": true,
      "inputs": [
        {
          "internalType": "uint256",
          "name": "a",
          "type": "uint256"
        },
        {
          "internalType": "uint256",
          "name": "b",
          "type": "uint256"
        }
      ],
      "name": "addExPure",
      "outputs": [
        {
          "internalType": "uint256",
          "name": "",
          "type": "uint256"
        }
      ],
      "payable": false,
      "stateMutability": "pure",
      "type": "function"
    },
    {
      "constant": false,
      "inputs": [
        {
          "internalType": "uint256",
          "name": "a",
          "type": "uint256"
        },
        {
          "internalType": "uint256",
          "name": "b",
          "type": "uint256"
        }
      ],
      "name": "multiplyExPure",
      "outputs": [
        {
          "internalType": "uint256",
          "name": "",
          "type": "uint256"
        }
      ],
      "payable": false,
      "stateMutability": "nonpayable",
      "type": "function"
    },
    {
      "constant": false,
      "inputs": [
        {
          "internalType": "uint256",
          "name": "a",
          "type": "uint256"
        },
        {
          "internalType": "uint256",
          "name": "b",
          "type": "uint256"
        }
      ],
      "name": "addExWr",
      "outputs": [
        {
          "internalType": "uint256",
          "name": "",
          "type": "uint256"
        }
      ],
      "payable": false,
      "stateMutability": "nonpayable",
      "type": "function"
    },
    {
      "constant": false,
      "inputs": [
        {
          "internalType": "uint256",
          "name": "a",
          "type": "uint256"
        },
        {
          "internalType": "uint256",
          "name": "b",
          "type": "uint256"
        }
      ],
      "name": "multiplyExWr",
      "outputs": [
        {
          "internalType": "uint256",
          "name": "",
          "type": "uint256"
        }
      ],
      "payable": false,
      "stateMutability": "nonpayable",
      "type": "function"
    },
    {
      "constant": true,
      "inputs": [
        {
          "internalType": "uint256",
          "name": "a",
          "type": "uint256"
        },
        {
          "internalType": "uint256",
          "name": "b",
          "type": "uint256"
        }
      ],
      "name": "addExPureWr",
      "outputs": [
        {
          "internalType": "uint256",
          "name": "",
          "type": "uint256"
        }
      ],
      "payable": false,
      "stateMutability": "pure",
      "type": "function"
    },
    {
      "constant": false,
      "inputs": [
        {
          "internalType": "uint256",
          "name": "a",
          "type": "uint256"
        },
        {
          "internalType": "uint256",
          "name": "b",
          "type": "uint256"
        }
      ],
      "name": "multiplyExPureWr",
      "outputs": [
        {
          "internalType": "uint256",
          "name": "",
          "type": "uint256"
        }
      ],
      "payable": false,
      "stateMutability": "nonpayable",
      "type": "function"
    }
  ],
  "bytecode": "0x608060405234801561001057600080fd5b50610466806100206000396000f3fe608060405234801561001057600080fd5b50600436106100885760003560e01c80639c05595c1161005b5780639c05595c146101bd578063a8c4ff1c14610209578063eabce27114610255578063ef951772146102a157610088565b8063096b28031461008d578063345f3cf5146100d95780636394722a146101255780636befd05f14610171575b600080fd5b6100c3600480360360408110156100a357600080fd5b8101908080359060200190929190803590602001909291905050506102ed565b6040518082815260200191505060405180910390f35b61010f600480360360408110156100ef57600080fd5b810190808035906020019092919080359060200190929190505050610309565b6040518082815260200191505060405180910390f35b61015b6004803603604081101561013b57600080fd5b810190808035906020019092919080359060200190929190505050610323565b6040518082815260200191505060405180910390f35b6101a76004803603604081101561018757600080fd5b81019080803590602001909291908035906020019092919050505061035a565b6040518082815260200191505060405180910390f35b6101f3600480360360408110156101d357600080fd5b810190808035906020019092919080359060200190929190505050610376565b6040518082815260200191505060405180910390f35b61023f6004803603604081101561021f57600080fd5b8101908080359060200190929190803590602001909291905050506103ad565b6040518082815260200191505060405180910390f35b61028b6004803603604081101561026b57600080fd5b8101908080359060200190929190803590602001909291905050506103e2565b6040518082815260200191505060405180910390f35b6102d7600480360360408110156102b757600080fd5b810190808035906020019092919080359060200190929190505050610417565b6040518082815260200191505060405180910390f35b6000808284019050838110156102ff57fe5b8091505092915050565b6000808390508381101561031957fe5b8091505092915050565b6000808314156103365760009050610354565b600082840290508284828161034757fe5b041461034f57fe5b809150505b92915050565b60008082840190508381101561036c57fe5b8091505092915050565b60008083141561038957600090506103a7565b600082840290508284828161039a57fe5b04146103a257fe5b809150505b92915050565b6000808314156103c057600090506103dc565b6000839050828482816103cf57fe5b04146103d757fe5b809150505b92915050565b6000808314156103f55760009050610411565b60008390508284828161040457fe5b041461040c57fe5b809150505b92915050565b6000808390508381101561042757fe5b809150509291505056fea265627a7a7231582094cc02b066e21bfeffc928d2f437f34822bea8cf580b54e8fc66880111649b2d64736f6c63430005100032",
  "source": "// SPDX-License-Identifier: GPL-3.0\npragma solidity >=0.4.22 <0.9.0;\n\n/**\n*\n*/\n\ncontract AssertMath {\n\n    function add(uint256 a, uint256 b) internal pure returns (uint) {\n        uint c = a + b;\n        assert(c >= a);\n        return c;\n    }\n\n    function multiply(uint256 a, uint256 b) internal pure returns (uint) {\n        if (a == 0) {\n            return 0;\n        }\n        uint c = a * b;\n        assert(c / a == b);\n        return c;\n    }\n\n\n    // next, added by me\n\n\n    // 21785\n    // {\n    //  tx: '0x63f568aa4f6559df84e24448f9f6ba7bc9a10d242c2c66530f36ff9d05e540df',\n    //  receipt: {\n    //    transactionHash: '0x63f568aa4f6559df84e24448f9f6ba7bc9a10d242c2c66530f36ff9d05e540df',\n    //    transactionIndex: 0,\n    //    blockHash: '0x427611c9158ccc9bf62c109cbfbde9e53b5cfe1e07f94b12e6ad7524829c0b13',\n    //    blockNumber: 239,\n    //    from: '0xd4f096bd2fa53e8374ff82c1a21f7afe8a448f9d',\n    //    to: '0x99a382278fdc99b82151e568ed49e04e8eefae58',\n    //    gasUsed: 21814,\n    //    cumulativeGasUsed: 21814,\n    //    contractAddress: null,\n    //    logs: [],\n    //    status: true,\n    //    logsBloom: '0x00000000000000000000000000000000000000000000000000000000000000000000000000000000000000000000000000000000000000000000000000000000000000000000000000000000000000000000000000000000000000000000000000000000000000000000000000000000000000000000000000000000000000000000000000000000000000000000000000000000000000000000000000000000000000000000000000000000000000000000000000000000000000000000000000000000000000000000000000000000000000000000000000000000000000000000000000000000000000000000000000000000000000000000000000000000',\n    //    rawLogs: []\n    //  },\n    //  logs: []\n    //}\n\n    function addEx(uint256 a, uint256 b) external returns (uint) {\n        uint c = a + b;\n        assert(c >= a);\n        return c;\n    }\n\n    // 21814\n    function multiplyEx(uint256 a, uint256 b) external returns (uint) {\n        if (a == 0) {\n            return 0;\n        }\n        uint c = a * b;\n        assert(c / a == b);\n        return c;\n    }\n\n    // todo no transaction, no gas tk: truffle(development)> app.addExPure(2,4)\n    // TODO STRANGE in remix - it's transaction and gas reduced\n    //BN { negative: 0, words: [ 6, <1 empty item> ], length: 1, red: null }\n    function addExPure(uint256 a, uint256 b) external pure returns (uint) {\n        uint c = a + b;\n        assert(c >= a);\n        return c;\n    }\n\n    function multiplyExPure(uint256 a, uint256 b) external returns (uint) {\n        if (a == 0) {\n            return 0;\n        }\n        uint c = a * b;\n        assert(c / a == b);\n        return c;\n    }\n\n\n\n    function addExWr(uint256 a, uint256 b) external returns (uint) {\n        uint c = a;\n        assert(c >= a);\n        return c;\n    }\n\n    function multiplyExWr(uint256 a, uint256 b) external returns (uint) {\n        if (a == 0) {\n            return 0;\n        }\n        uint c = a;\n        assert(c / a == b);\n        return c;\n    }\n\n    function addExPureWr(uint256 a, uint256 b) external pure returns (uint) {\n        uint c = a;\n        assert(c >= a);\n        return c;\n    }\n\n    function multiplyExPureWr(uint256 a, uint256 b) external returns (uint) {\n        if (a == 0) {\n            return 0;\n        }\n        uint c = a;\n        assert(c / a == b);\n        return c;\n    }\n}\n",
  "sourcePath": "/home/FINTECHINNOVATION.LAN/vstepanov/sublime/solidity_course/contracts/archived/AssertMath.sol",
  "compiler": {
    "name": "solc",
    "version": "0.5.16+commit.9c3226ce.Emscripten.clang"
  },
  "schemaVersion": "3.4.7",
  "updatedAt": "2022-05-04T14:16:46.334Z",
  "devdoc": {
    "methods": {}
  },
  "userdoc": {
    "methods": {}
  }
}