{
  "contractName": "BankStruct",
  "abi": [
    {
      "constant": true,
      "inputs": [],
      "name": "acc",
      "outputs": [
        {
          "internalType": "address",
          "name": "addr",
          "type": "address"
        },
        {
          "internalType": "uint256",
          "name": "amount",
          "type": "uint256"
        }
      ],
      "payable": false,
      "stateMutability": "view",
      "type": "function"
    },
    {
      "constant": true,
      "inputs": [],
      "name": "acc2",
      "outputs": [
        {
          "internalType": "address",
          "name": "addr",
          "type": "address"
        },
        {
          "internalType": "uint256",
          "name": "amount",
          "type": "uint256"
        }
      ],
      "payable": false,
      "stateMutability": "view",
      "type": "function"
    },
    {
      "constant": false,
      "inputs": [
        {
          "internalType": "uint256",
          "name": "_addMoney",
          "type": "uint256"
        }
      ],
      "name": "addAmount",
      "outputs": [],
      "payable": false,
      "stateMutability": "nonpayable",
      "type": "function"
    },
    {
      "constant": false,
      "inputs": [
        {
          "internalType": "uint256",
          "name": "_withdrawMoney",
          "type": "uint256"
        }
      ],
      "name": "withdrawAmount",
      "outputs": [],
      "payable": false,
      "stateMutability": "nonpayable",
      "type": "function"
    },
    {
      "constant": false,
      "inputs": [
        {
          "internalType": "uint256",
          "name": "_addMoney",
          "type": "uint256"
        }
      ],
      "name": "transferAmount",
      "outputs": [],
      "payable": false,
      "stateMutability": "nonpayable",
      "type": "function"
    }
  ],
  "bytecode": "0x608060405260405180604001604052807366ec542d55a86f2fd0b0d9cb9f31bc20ac02477a73ffffffffffffffffffffffffffffffffffffffff168152602001606f8152506000808201518160000160006101000a81548173ffffffffffffffffffffffffffffffffffffffff021916908373ffffffffffffffffffffffffffffffffffffffff1602179055506020820151816001015550506040518060400160405280734b20993bc481177ec7e8f571cecae8a9e22c02db73ffffffffffffffffffffffffffffffffffffffff16815260200160de815250600260008201518160000160006101000a81548173ffffffffffffffffffffffffffffffffffffffff021916908373ffffffffffffffffffffffffffffffffffffffff16021790555060208201518160010155505034801561013957600080fd5b50610276806101496000396000f3fe608060405234801561001057600080fd5b50600436106100575760003560e01c80630562b9f71461005c5780630912f2321461008a57806355574c9b146100b85780637da1365e146100e6578063ccd9180914610137575b600080fd5b6100886004803603602081101561007257600080fd5b8101908080359060200190929190505050610188565b005b6100b6600480360360208110156100a057600080fd5b810190808035906020019092919050505061019e565b005b6100e4600480360360208110156100ce57600080fd5b81019080803590602001909291905050506101b4565b005b6100ee6101dd565b604051808373ffffffffffffffffffffffffffffffffffffffff1673ffffffffffffffffffffffffffffffffffffffff1681526020018281526020019250505060405180910390f35b61013f61020f565b604051808373ffffffffffffffffffffffffffffffffffffffff1673ffffffffffffffffffffffffffffffffffffffff1681526020018281526020019250505060405180910390f35b8060006001016000828254039250508190555050565b8060006001016000828254019250508190555050565b806000600101600082825403925050819055508060026001016000828254019250508190555050565b60008060000160009054906101000a900473ffffffffffffffffffffffffffffffffffffffff16908060010154905082565b60028060000160009054906101000a900473ffffffffffffffffffffffffffffffffffffffff1690806001015490508256fea265627a7a72315820e0ad6d5a5ec55ec66d1a8e4014924c8574751fae89326a47eb14e68bd52baf6964736f6c63430005100032",
  "source": "// SPDX-License-Identifier: GPL-3.0\npragma solidity >=0.4.22 <0.9.0;\n\n/**\n* ASSIGNMENT:\n\nCopy the contract and test it out in REMIX\n\nAdd amount to the account with the function “addAmount”\n\nCreate a function “withdraw” that deducts money from the account\n\nCreate one more Account\n\nCreate a function transfer that deducts money from first account and adds them to the second\n*/\ncontract BankStruct {\n    struct Account {\n        address addr;\n        uint amount;\n    }\n\n    Account public acc = Account({\n        addr : 0x66ec542D55a86F2Fd0B0d9cB9f31bc20aC02477a,\n        amount : 111\n    });\n\n    function addAmount(uint _addMoney) public {\n        acc.amount += _addMoney;\n    }\n\n    function withdrawAmount(uint _withdrawMoney) public {\n        acc.amount -= _withdrawMoney;\n    }\n\n    Account public acc2 = Account({\n        addr : 0x4B20993Bc481177ec7E8f571ceCaE8A9e22C02db,\n        amount : 222\n    });\n\n    function transferAmount(uint _addMoney) public {\n        acc.amount -= _addMoney;\n        acc2.amount += _addMoney;\n    }\n}\n",
  "sourcePath": "/home/FINTECHINNOVATION.LAN/vstepanov/sublime/solidity_course/contracts/StructBank.sol",
  "compiler": {
    "name": "solc",
    "version": "0.5.16+commit.9c3226ce.Emscripten.clang"
  },
  "schemaVersion": "3.4.7",
  "updatedAt": "2022-05-04T11:32:06.442Z",
  "devdoc": {
    "methods": {}
  },
  "userdoc": {
    "methods": {},
    "notice": "ASSIGNMENT: Copy the contract and test it out in REMIX Add amount to the account with the function “addAmount” Create a function “withdraw” that deducts money from the account Create one more Account Create a function transfer that deducts money from first account and adds them to the second"
  }
}