{
  "contractName": "ChangeArrayValue",
  "abi": [
    {
      "constant": true,
      "inputs": [
        {
          "internalType": "uint256",
          "name": "",
          "type": "uint256"
        }
      ],
      "name": "arr",
      "outputs": [
        {
          "internalType": "uint256",
          "name": "",
          "type": "uint256"
        }
      ],
      "payable": false,
      "stateMutability": "view",
      "type": "function"
    },
    {
      "constant": false,
      "inputs": [],
      "name": "startChange",
      "outputs": [
        {
          "internalType": "uint256[20]",
          "name": "",
          "type": "uint256[20]"
        }
      ],
      "payable": false,
      "stateMutability": "nonpayable",
      "type": "function"
    }
  ],
  "bytecode": "0x608060405234801561001057600080fd5b50610200806100206000396000f3fe608060405234801561001057600080fd5b50600436106100365760003560e01c806371e5ee5f1461003b578063b47247561461007d575b600080fd5b6100676004803603602081101561005157600080fd5b81019080803590602001909291905050506100c3565b6040518082815260200191505060405180910390f35b6100856100db565b6040518082601460200280838360005b838110156100b0578082015181840152602081019050610095565b5050505090500191505060405180910390f35b600081601481106100d057fe5b016000915090505481565b6100e36101a8565b6100ed6000610176565b6101336000601480602002604051908101604052809291908260148015610129576020028201915b815481526020019060010190808311610115575b505050505061018d565b600060148060200260405190810160405280929190826014801561016c576020028201915b815481526020019060010190808311610158575b5050505050905090565b60048160006014811061018557fe5b018190555050565b60038160006014811061019c57fe5b60200201818152505050565b60405180610280016040528060149060208202803883398082019150509050509056fea265627a7a7231582059753b0b3401fb9cd3bc5a0fc42be7dfd66d3420a3731b3194ffba7a6fb84eba64736f6c63430005100032",
  "source": "// SPDX-License-Identifier: GPL-3.0\npragma solidity >=0.4.22 <0.9.0;\n\ncontract ChangeArrayValue {\n    uint[20] public arr;\n\n    function startChange() public returns (uint[20] memory){\n        firstChange(arr);\n        secondChange(arr);\n        return arr;\n    }\n\n    function firstChange(uint[20] storage x) internal {\n        x[0] = 4;\n    }\n\n    function secondChange(uint[20] memory x) internal pure {\n        x[0] = 3;\n    }\n}\n",
  "sourcePath": "/home/FINTECHINNOVATION.LAN/vstepanov/sublime/solidity_course/contracts/archived/ChangeArrayValue.sol",
  "compiler": {
    "name": "solc",
    "version": "0.5.16+commit.9c3226ce.Emscripten.clang"
  },
  "schemaVersion": "3.4.7",
  "updatedAt": "2022-05-04T14:16:46.338Z",
  "devdoc": {
    "methods": {}
  },
  "userdoc": {
    "methods": {}
  }
}