{
  "contractName": "FixedSizedArray",
  "abi": [
    {
      "constant": false,
      "inputs": [],
      "name": "getNums",
      "outputs": [
        {
          "internalType": "uint8[3]",
          "name": "",
          "type": "uint8[3]"
        }
      ],
      "payable": false,
      "stateMutability": "nonpayable",
      "type": "function"
    },
    {
      "constant": true,
      "inputs": [],
      "name": "getLength",
      "outputs": [
        {
          "internalType": "uint256",
          "name": "",
          "type": "uint256"
        }
      ],
      "payable": false,
      "stateMutability": "view",
      "type": "function"
    }
  ],
  "bytecode": "0x60806040526040518060600160405280600a60ff168152602001601460ff168152602001601e60ff16815250600090600361003b92919061004e565b5034801561004857600080fd5b50610118565b826003601f016020900481019282156100d75791602002820160005b838211156100a857835183826101000a81548160ff021916908360ff160217905550926020019260010160208160000104928301926001030261006a565b80156100d55782816101000a81549060ff02191690556001016020816000010492830192600103026100a8565b505b5090506100e491906100e8565b5090565b61011591905b8082111561011157600081816101000a81549060ff0219169055506001016100ee565b5090565b90565b6101ff806101276000396000f3fe608060405234801561001057600080fd5b50600436106100365760003560e01c806347ce00781461003b578063be1c766b14610081575b600080fd5b61004361009f565b6040518082600360200280838360005b8381101561006e578082015181840152602081019050610053565b5050505090500191505060405180910390f35b61008961019f565b6040518082815260200191505060405180910390f35b6100a76101a8565b600b600080600381106100b657fe5b602091828204019190066101000a81548160ff021916908360ff160217905550601660006001600381106100e657fe5b602091828204019190066101000a81548160ff021916908360ff1602179055506021600060026003811061011657fe5b602091828204019190066101000a81548160ff021916908360ff1602179055506000600380602002604051908101604052809291908260038015610195576020028201916000905b82829054906101000a900460ff1660ff168152602001906001019060208260000104928301926001038202915080841161015e5790505b5050505050905090565b60006003905090565b604051806060016040528060039060208202803883398082019150509050509056fea265627a7a72315820136169840184dbb0f44a5706e250426dfbce6327d44017916ab3ab6bb9b674b664736f6c63430005100032",
  "source": "// SPDX-License-Identifier: GPL-3.0\npragma solidity >=0.4.22 <0.9.0;\n\n\ncontract FixedSizedArray {\n\n    uint8[3] nums = [10, 20, 30];\n\n    function getNums() public returns (uint8[3] memory){\n        nums[0] = 11;\n        nums[1] = 22;\n        nums[2] = 33;\n        return nums;\n    }\n\n    function getLength() view public returns (uint){\n        return nums.length;\n    }\n}\n",
  "sourcePath": "/home/FINTECHINNOVATION.LAN/vstepanov/sublime/solidity_course/contracts/FixedSizedArray.sol",
  "compiler": {
    "name": "solc",
    "version": "0.5.16+commit.9c3226ce.Emscripten.clang"
  },
  "schemaVersion": "3.4.7",
  "updatedAt": "2022-05-07T23:45:54.903Z",
  "devdoc": {
    "methods": {}
  },
  "userdoc": {
    "methods": {}
  }
}