{
  "contractName": "ModifierMortal",
  "abi": [
    {
      "constant": false,
      "inputs": [],
      "name": "close",
      "outputs": [],
      "payable": false,
      "stateMutability": "nonpayable",
      "type": "function"
    }
  ],
  "bytecode": "0x6080604052336000806101000a81548173ffffffffffffffffffffffffffffffffffffffff021916908373ffffffffffffffffffffffffffffffffffffffff16021790555060fc806100526000396000f3fe6080604052348015600f57600080fd5b506004361060285760003560e01c806343d726d614602d575b600080fd5b60336035565b005b6000809054906101000a900473ffffffffffffffffffffffffffffffffffffffff1673ffffffffffffffffffffffffffffffffffffffff163373ffffffffffffffffffffffffffffffffffffffff1614608d57600080fd5b6000809054906101000a900473ffffffffffffffffffffffffffffffffffffffff1673ffffffffffffffffffffffffffffffffffffffff16fffea265627a7a72315820368bd8a2f9023feaa3d91d68318624e73bd5ce49e5d65ec50bee7a7fb55675f164736f6c63430005100032",
  "source": "// SPDX-License-Identifier: GPL-3.0\npragma solidity >=0.4.22 <0.9.0;\n\n/**\n*\n*/\n\ncontract ModifierOwned {\n    constructor() public {\n        owner = msg.sender;\n    }\n    address payable owner;\n\n    modifier onlyOwner {\n        require(msg.sender == owner);\n        _;\n    }\n}\n\ncontract ModifierMortal is ModifierOwned {\n\n    function close() public onlyOwner {\n        selfdestruct(owner);\n    }\n}\n",
  "sourcePath": "/home/FINTECHINNOVATION.LAN/vstepanov/sublime/solidity_course/contracts/ModifierOwned.sol",
  "compiler": {
    "name": "solc",
    "version": "0.5.16+commit.9c3226ce.Emscripten.clang"
  },
  "schemaVersion": "3.4.7",
  "updatedAt": "2022-05-04T14:27:11.932Z",
  "networkType": "ethereum",
  "devdoc": {
    "methods": {}
  },
  "userdoc": {
    "methods": {}
  }
}