{
  "contractName": "OverflowAndUnderFlow",
  "abi": [
    {
      "constant": true,
      "inputs": [],
      "name": "overflow",
      "outputs": [
        {
          "internalType": "uint256",
          "name": "",
          "type": "uint256"
        }
      ],
      "payable": false,
      "stateMutability": "pure",
      "type": "function"
    },
    {
      "constant": true,
      "inputs": [],
      "name": "overflowPlusNine",
      "outputs": [
        {
          "internalType": "uint256",
          "name": "",
          "type": "uint256"
        }
      ],
      "payable": false,
      "stateMutability": "pure",
      "type": "function"
    },
    {
      "constant": true,
      "inputs": [],
      "name": "underflow",
      "outputs": [
        {
          "internalType": "uint256",
          "name": "",
          "type": "uint256"
        }
      ],
      "payable": false,
      "stateMutability": "pure",
      "type": "function"
    },
    {
      "constant": true,
      "inputs": [],
      "name": "underflowMinusNine",
      "outputs": [
        {
          "internalType": "uint256",
          "name": "",
          "type": "uint256"
        }
      ],
      "payable": false,
      "stateMutability": "pure",
      "type": "function"
    }
  ],
  "bytecode": "0x608060405234801561001057600080fd5b5061017f806100206000396000f3fe608060405234801561001057600080fd5b506004361061004b5760003560e01c80624264c31461005057806374c9c76a1461006e578063c080c1031461008c578063dc75bec7146100aa575b600080fd5b6100586100c8565b6040518082815260200191505060405180910390f35b6100766100f8565b6040518082815260200191505060405180910390f35b610094610109565b6040518082815260200191505060405180910390f35b6100b2610139565b6040518082815260200191505060405180910390f35b6000807fffffffffffffffffffffffffffffffffffffffffffffffffffffffffffffffff90506001810191505090565b600080600090506009810391505090565b6000807fffffffffffffffffffffffffffffffffffffffffffffffffffffffffffffffff90506009810191505090565b60008060009050600181039150509056fea265627a7a72315820db0e9d711084a174b039b4f70143ca9d857b57bdc272d174098e87f024ada53a64736f6c63430005100032",
  "source": "// SPDX-License-Identifier: GPL-3.0\npragma solidity >=0.4.22 <0.9.0;\n\n// creating the contract\n/**\n * The Messenger contract does this and that...\n */\ncontract OverflowAndUnderFlow {\n\n    function overflow() public pure returns(uint256) {\n        uint256 max = 2**256 - 1; // 2 in 256 stepeni\n        return max + 1; // ... words: [0, ...\n    }\n\n    function overflowPlusNine() public pure returns(uint256) {\n        uint256 max = 2**256 - 1; // 2 in 256 stepeni\n        return max + 9; // ... words: [8, ...\n    }\n\n    function underflow() public pure returns(uint256) {\n        uint256 min = 0;\n        return min - 1; // should be 2**256-1 BUT NOT ((\n    }\n\n    function underflowMinusNine() public pure returns(uint256) {\n        uint256 min = 0;\n        return min - 9; \n    }\n}\n",
  "sourcePath": "/home/FINTECHINNOVATION.LAN/vstepanov/sublime/solidity_course/contracts/OverflowAndUnderFlow.sol",
  "compiler": {
    "name": "solc",
    "version": "0.5.16+commit.9c3226ce.Emscripten.clang"
  },
  "schemaVersion": "3.4.7",
  "updatedAt": "2022-05-01T11:01:19.879Z",
  "networkType": "ethereum",
  "devdoc": {
    "methods": {}
  },
  "userdoc": {
    "methods": {},
    "notice": "The Messenger contract does this and that..."
  }
}