{
  "contractName": "RequireBank",
  "abi": [
    {
      "constant": true,
      "inputs": [
        {
          "internalType": "address",
          "name": "",
          "type": "address"
        }
      ],
      "name": "accounts",
      "outputs": [
        {
          "internalType": "uint256",
          "name": "",
          "type": "uint256"
        }
      ],
      "payable": false,
      "stateMutability": "view",
      "type": "function"
    },
    {
      "constant": false,
      "inputs": [
        {
          "internalType": "uint256",
          "name": "money",
          "type": "uint256"
        }
      ],
      "name": "deposit",
      "outputs": [],
      "payable": true,
      "stateMutability": "payable",
      "type": "function"
    },
    {
      "constant": false,
      "inputs": [
        {
          "internalType": "uint256",
          "name": "money",
          "type": "uint256"
        }
      ],
      "name": "withdraw",
      "outputs": [],
      "payable": false,
      "stateMutability": "nonpayable",
      "type": "function"
    }
  ],
  "bytecode": "0x608060405234801561001057600080fd5b50610331806100206000396000f3fe6080604052600436106100345760003560e01c80632e1a7d4d146100395780635e5c06e214610074578063b6b55f25146100d9575b600080fd5b34801561004557600080fd5b506100726004803603602081101561005c57600080fd5b8101908080359060200190929190505050610107565b005b34801561008057600080fd5b506100c36004803603602081101561009757600080fd5b81019080803573ffffffffffffffffffffffffffffffffffffffff1690602001909291905050506101a1565b6040518082815260200191505060405180910390f35b610105600480360360208110156100ef57600080fd5b81019080803590602001909291905050506101b9565b005b6000803373ffffffffffffffffffffffffffffffffffffffff1673ffffffffffffffffffffffffffffffffffffffff1681526020019081526020016000205481111561015257600080fd5b806000803373ffffffffffffffffffffffffffffffffffffffff1673ffffffffffffffffffffffffffffffffffffffff1681526020019081526020016000206000828254039250508190555050565b60006020528060005260406000206000915090505481565b6000803373ffffffffffffffffffffffffffffffffffffffff1673ffffffffffffffffffffffffffffffffffffffff16815260200190815260200160002054816000803373ffffffffffffffffffffffffffffffffffffffff1673ffffffffffffffffffffffffffffffffffffffff168152602001908152602001600020540110156102ad576040517f08c379a000000000000000000000000000000000000000000000000000000000815260040180806020018281038252600e8152602001807f4f766572666c6f77206572726f7200000000000000000000000000000000000081525060200191505060405180910390fd5b806000803373ffffffffffffffffffffffffffffffffffffffff1673ffffffffffffffffffffffffffffffffffffffff168152602001908152602001600020600082825401925050819055505056fea265627a7a7231582026c98cee3cb8b79daede45dc9b2b32361128c733efc61643a2952f46ecd369d564736f6c63430005100032",
  "source": "// SPDX-License-Identifier: GPL-3.0\npragma solidity >=0.4.22 <0.9.0;\n\n/**\n*\n*/\n\ncontract RequireBank {\n    mapping(address => uint) public accounts;\n\n    function deposit(uint money) public payable {\n        require(accounts[msg.sender] + money >= accounts[msg.sender], \"Overflow error\");\n        accounts[msg.sender] += money;\n    }\n\n    function withdraw(uint money) public {\n        require(money <= accounts[msg.sender]);\n        accounts[msg.sender] -= money;\n    }\n}\n",
  "sourcePath": "/home/FINTECHINNOVATION.LAN/vstepanov/sublime/solidity_course/contracts/archived/RequireBank.sol",
  "compiler": {
    "name": "solc",
    "version": "0.5.16+commit.9c3226ce.Emscripten.clang"
  },
  "schemaVersion": "3.4.7",
  "updatedAt": "2022-05-04T14:16:46.344Z",
  "devdoc": {
    "methods": {}
  },
  "userdoc": {
    "methods": {}
  }
}