{
  "contractName": "Score",
  "abi": [
    {
      "constant": false,
      "inputs": [
        {
          "internalType": "uint24",
          "name": "s",
          "type": "uint24"
        }
      ],
      "name": "addScore",
      "outputs": [
        {
          "internalType": "uint24[]",
          "name": "",
          "type": "uint24[]"
        }
      ],
      "payable": false,
      "stateMutability": "nonpayable",
      "type": "function"
    },
    {
      "constant": true,
      "inputs": [],
      "name": "getLength",
      "outputs": [
        {
          "internalType": "uint256",
          "name": "",
          "type": "uint256"
        }
      ],
      "payable": false,
      "stateMutability": "view",
      "type": "function"
    },
    {
      "constant": false,
      "inputs": [],
      "name": "clearArray",
      "outputs": [
        {
          "internalType": "uint24[]",
          "name": "",
          "type": "uint24[]"
        }
      ],
      "payable": false,
      "stateMutability": "nonpayable",
      "type": "function"
    }
  ],
  "bytecode": "0x608060405234801561001057600080fd5b5061033b806100206000396000f3fe608060405234801561001057600080fd5b50600436106100415760003560e01c80633b62cbd514610046578063be1c766b146100ce578063e80b7ab6146100ec575b600080fd5b6100776004803603602081101561005c57600080fd5b81019080803562ffffff16906020019092919050505061014b565b6040518080602001828103825283818151815260200191508051906020019060200280838360005b838110156100ba57808201518184015260208101905061009f565b505050509050019250505060405180910390f35b6100d661021e565b6040518082815260200191505060405180910390f35b6100f461022a565b6040518080602001828103825283818151815260200191508051906020019060200280838360005b8381101561013757808201518184015260208101905061011c565b505050509050019250505060405180910390f35b60606000829080600181540180825580915050906001820390600052602060002090600a9182820401919006600302909192909190916101000a81548162ffffff021916908362ffffff16021790555050600080548060200260200160405190810160405280929190818152602001828054801561021257602002820191906000526020600020906000905b82829054906101000a900462ffffff1662ffffff16815260200190600301906020826002010492830192600103820291508084116101d75790505b50505050509050919050565b60008080549050905090565b606060008061023991906102b9565b60008054806020026020016040519081016040528092919081815260200182805480156102af57602002820191906000526020600020906000905b82829054906101000a900462ffffff1662ffffff16815260200190600301906020826002010492830192600103820291508084116102745790505b5050505050905090565b50805460008255600901600a9004906000526020600020908101906102de91906102e1565b50565b61030391905b808211156102ff5760008160009055506001016102e7565b5090565b9056fea265627a7a7231582014ccac9374a9a6394ef4e60649c1cab40592213e33e812878f86c3f7a364708364736f6c63430005100032",
  "source": "// SPDX-License-Identifier: GPL-3.0\npragma solidity >=0.4.22 <0.9.0;\n\n/**\n * Dynamic Array Contract\n */\n\ncontract Score {\n\n  uint24[] score;\n\n   function addScore(uint24 s) public returns(uint24[] memory) {\n       score.push(s);\n       return score;\n   }\n\n   function getLength() view public returns(uint) {\n       return score.length;\n   }\n\n   function clearArray() public returns(uint24[] memory) {\n       delete score;\n       return score;\n   }\n}\n",
  "sourcePath": "/home/FINTECHINNOVATION.LAN/vstepanov/sublime/solidity_course/contracts/Score.sol",
  "compiler": {
    "name": "solc",
    "version": "0.5.16+commit.9c3226ce.Emscripten.clang"
  },
  "schemaVersion": "3.4.7",
  "updatedAt": "2022-05-02T19:37:27.533Z",
  "networkType": "ethereum",
  "devdoc": {
    "methods": {}
  },
  "userdoc": {
    "methods": {},
    "notice": "Dynamic Array Contract"
  }
}