{
  "contractName": "SimpleToken",
  "abi": [
    {
      "inputs": [
        {
          "internalType": "uint256",
          "name": "initialSupply",
          "type": "uint256"
        }
      ],
      "payable": false,
      "stateMutability": "nonpayable",
      "type": "constructor"
    },
    {
      "constant": true,
      "inputs": [
        {
          "internalType": "address",
          "name": "",
          "type": "address"
        }
      ],
      "name": "accounts",
      "outputs": [
        {
          "internalType": "uint256",
          "name": "",
          "type": "uint256"
        }
      ],
      "payable": false,
      "stateMutability": "view",
      "type": "function"
    },
    {
      "constant": true,
      "inputs": [
        {
          "internalType": "uint256",
          "name": "",
          "type": "uint256"
        }
      ],
      "name": "balancesList",
      "outputs": [
        {
          "internalType": "uint256",
          "name": "",
          "type": "uint256"
        }
      ],
      "payable": false,
      "stateMutability": "view",
      "type": "function"
    },
    {
      "constant": true,
      "inputs": [
        {
          "internalType": "uint256",
          "name": "",
          "type": "uint256"
        }
      ],
      "name": "lastInteractedAccountsPair",
      "outputs": [
        {
          "internalType": "address",
          "name": "",
          "type": "address"
        }
      ],
      "payable": false,
      "stateMutability": "view",
      "type": "function"
    },
    {
      "constant": false,
      "inputs": [
        {
          "internalType": "address",
          "name": "receiver",
          "type": "address"
        },
        {
          "internalType": "uint256",
          "name": "value",
          "type": "uint256"
        }
      ],
      "name": "transfer",
      "outputs": [],
      "payable": false,
      "stateMutability": "nonpayable",
      "type": "function"
    },
    {
      "constant": true,
      "inputs": [
        {
          "internalType": "address",
          "name": "_address",
          "type": "address"
        }
      ],
      "name": "balance",
      "outputs": [
        {
          "internalType": "uint256",
          "name": "",
          "type": "uint256"
        }
      ],
      "payable": false,
      "stateMutability": "view",
      "type": "function"
    },
    {
      "constant": true,
      "inputs": [],
      "name": "supply",
      "outputs": [
        {
          "internalType": "uint256",
          "name": "",
          "type": "uint256"
        }
      ],
      "payable": false,
      "stateMutability": "view",
      "type": "function"
    },
    {
      "constant": true,
      "inputs": [],
      "name": "supplyAll",
      "outputs": [
        {
          "internalType": "uint256[]",
          "name": "",
          "type": "uint256[]"
        }
      ],
      "payable": false,
      "stateMutability": "view",
      "type": "function"
    },
    {
      "constant": true,
      "inputs": [],
      "name": "returnLastInteractedAccountsPair",
      "outputs": [
        {
          "internalType": "address[]",
          "name": "",
          "type": "address[]"
        }
      ],
      "payable": false,
      "stateMutability": "view",
      "type": "function"
    },
    {
      "constant": false,
      "inputs": [],
      "name": "receiveFunds",
      "outputs": [],
      "payable": true,
      "stateMutability": "payable",
      "type": "function"
    },
    {
      "constant": false,
      "inputs": [
        {
          "internalType": "address",
          "name": "receiver",
          "type": "address"
        }
      ],
      "name": "transferWithoutValue",
      "outputs": [],
      "payable": true,
      "stateMutability": "payable",
      "type": "function"
    }
  ],
  "bytecode": "0x608060405234801561001057600080fd5b50604051610b50380380610b508339818101604052602081101561003357600080fd5b8101908080519060200190929190505050336000806101000a81548173ffffffffffffffffffffffffffffffffffffffff021916908373ffffffffffffffffffffffffffffffffffffffff16021790555080600160008060009054906101000a900473ffffffffffffffffffffffffffffffffffffffff1673ffffffffffffffffffffffffffffffffffffffff1673ffffffffffffffffffffffffffffffffffffffff1681526020019081526020016000208190555050610a57806100f96000396000f3fe6080604052600436106100905760003560e01c8063632b23a111610059578063632b23a114610207578063a760d37c1461024b578063a9059cbb1461029a578063e3d670d7146102f5578063fbf7de8d1461035a57610090565b80625c33e114610095578063047fc9aa1461009f5780632533fab0146100ca57806325be1951146101365780635e5c06e2146101a2575b600080fd5b61009d6103d5565b005b3480156100ab57600080fd5b506100b46103d7565b6040518082815260200191505060405180910390f35b3480156100d657600080fd5b506100df61043f565b6040518080602001828103825283818151815260200191508051906020019060200280838360005b83811015610122578082015181840152602081019050610107565b505050509050019250505060405180910390f35b34801561014257600080fd5b5061014b610497565b6040518080602001828103825283818151815260200191508051906020019060200280838360005b8381101561018e578082015181840152602081019050610173565b505050509050019250505060405180910390f35b3480156101ae57600080fd5b506101f1600480360360208110156101c557600080fd5b81019080803573ffffffffffffffffffffffffffffffffffffffff169060200190929190505050610525565b6040518082815260200191505060405180910390f35b6102496004803603602081101561021d57600080fd5b81019080803573ffffffffffffffffffffffffffffffffffffffff16906020019092919050505061053d565b005b34801561025757600080fd5b506102846004803603602081101561026e57600080fd5b81019080803590602001909291905050506106b3565b6040518082815260200191505060405180910390f35b3480156102a657600080fd5b506102f3600480360360408110156102bd57600080fd5b81019080803573ffffffffffffffffffffffffffffffffffffffff169060200190929190803590602001909291905050506106d4565b005b34801561030157600080fd5b506103446004803603602081101561031857600080fd5b81019080803573ffffffffffffffffffffffffffffffffffffffff1690602001909291905050506108d0565b6040518082815260200191505060405180910390f35b34801561036657600080fd5b506103936004803603602081101561037d57600080fd5b8101908080359060200190929190505050610919565b604051808273ffffffffffffffffffffffffffffffffffffffff1673ffffffffffffffffffffffffffffffffffffffff16815260200191505060405180910390f35b565b6000600160008060009054906101000a900473ffffffffffffffffffffffffffffffffffffffff1673ffffffffffffffffffffffffffffffffffffffff1673ffffffffffffffffffffffffffffffffffffffff16815260200190815260200160002054905090565b6060600280548060200260200160405190810160405280929190818152602001828054801561048d57602002820191906000526020600020905b815481526020019060010190808311610479575b5050505050905090565b6060600380548060200260200160405190810160405280929190818152602001828054801561051b57602002820191906000526020600020905b8160009054906101000a900473ffffffffffffffffffffffffffffffffffffffff1673ffffffffffffffffffffffffffffffffffffffff16815260200190600101908083116104d1575b5050505050905090565b60016020528060005260406000206000915090505481565b34600160003373ffffffffffffffffffffffffffffffffffffffff1673ffffffffffffffffffffffffffffffffffffffff16815260200190815260200160002054101561058957600080fd5b600160008273ffffffffffffffffffffffffffffffffffffffff1673ffffffffffffffffffffffffffffffffffffffff1681526020019081526020016000205434600160008473ffffffffffffffffffffffffffffffffffffffff1673ffffffffffffffffffffffffffffffffffffffff1681526020019081526020016000205401101561061657600080fd5b34600160003373ffffffffffffffffffffffffffffffffffffffff1673ffffffffffffffffffffffffffffffffffffffff1681526020019081526020016000206000828254039250508190555034600160008373ffffffffffffffffffffffffffffffffffffffff1673ffffffffffffffffffffffffffffffffffffffff1681526020019081526020016000206000828254019250508190555050565b600281815481106106c057fe5b906000526020600020016000915090505481565b60006001905081600160003373ffffffffffffffffffffffffffffffffffffffff1673ffffffffffffffffffffffffffffffffffffffff16815260200190815260200160002054101561072657600080fd5b600160008473ffffffffffffffffffffffffffffffffffffffff1673ffffffffffffffffffffffffffffffffffffffff1681526020019081526020016000205482600160008673ffffffffffffffffffffffffffffffffffffffff1673ffffffffffffffffffffffffffffffffffffffff168152602001908152602001600020540110156107b357600080fd5b81600160003373ffffffffffffffffffffffffffffffffffffffff1673ffffffffffffffffffffffffffffffffffffffff1681526020019081526020016000206000828254039250508190555081600160008573ffffffffffffffffffffffffffffffffffffffff1673ffffffffffffffffffffffffffffffffffffffff1681526020019081526020016000206000828254019250508190555060405180604001604052803373ffffffffffffffffffffffffffffffffffffffff1673ffffffffffffffffffffffffffffffffffffffff1681526020018473ffffffffffffffffffffffffffffffffffffffff1673ffffffffffffffffffffffffffffffffffffffff1681525060039060026108ca929190610955565b50505050565b6000600160008373ffffffffffffffffffffffffffffffffffffffff1673ffffffffffffffffffffffffffffffffffffffff168152602001908152602001600020549050919050565b6003818154811061092657fe5b906000526020600020016000915054906101000a900473ffffffffffffffffffffffffffffffffffffffff1681565b8280548282559060005260206000209081019282156109ce579160200282015b828111156109cd5782518260006101000a81548173ffffffffffffffffffffffffffffffffffffffff021916908373ffffffffffffffffffffffffffffffffffffffff16021790555091602001919060010190610975565b5b5090506109db91906109df565b5090565b610a1f91905b80821115610a1b57600081816101000a81549073ffffffffffffffffffffffffffffffffffffffff0219169055506001016109e5565b5090565b9056fea265627a7a723158205313a837585e9f5f79141ce58dc58e19ed1490aabfc68d1d9db139f2313fbc2564736f6c63430005100032",
  "source": "// SPDX-License-Identifier: GPL-3.0\npragma solidity >=0.4.22 <0.9.0;\n\n/**\n* after lecture 18.Mappings in solidity\nCreate a function that returns the balance of a certain account\n\nCreate a function that returns the available tokens supply\n\nCreate a payable function that receives ether and it will send tokens to the sender.\n*/\n\ncontract SimpleToken {\n    address payable owner;\n    mapping (address => uint256) public accounts;\n    uint256[] public balancesList;\n    address[] public lastInteractedAccountsPair;\n\n    constructor(uint256 initialSupply) public {\n        owner = msg.sender;\n        accounts[owner] = initialSupply;\n    }\n\n    function transfer(address receiver, uint256 value) public {\n        //        if (accounts[msg.sender] >= value) {\n        //            revert NotEnoughMoney();\n        //        }\n        uint index = 1;\n        require(accounts[msg.sender] >= value);\n        require(accounts[receiver] + value >= accounts[receiver]);\n        accounts[msg.sender] -= value;\n        accounts[receiver] += value;\n\n        lastInteractedAccountsPair = [msg.sender, receiver];\n\n        // throws invalid opcode\n        //        balancesList[0] = accounts[msg.sender];\n        //        balancesList[index] = accounts[receiver];\n    }\n\n    /**\n        * Create a function that returns the balance of a certain account\n    */\n    function balance(address _address) public view returns(uint256){\n        return accounts[_address];\n    }\n\n    /**\n        * Create a function that returns the available tokens supply\n    */\n    function supply() public view returns(uint256){\n        return accounts[owner];\n    }\n\n    // cannot feel balances list - // throws invalid opcode\n    function supplyAll() public view returns(uint256[] memory){\n        return balancesList;\n    }\n\n    function returnLastInteractedAccountsPair() public view returns(address[] memory){\n        return lastInteractedAccountsPair;\n    }\n\n    function receiveFunds() payable external {\n        // lost here on how to receive ether and send tokens!\n    }\n\n    //you can use the Simple Token example to transform\n    //    the transfer function into a payable one like this:\n\n    //this way the function  would not receive a second parameter\n    //    value but it would use the msg.value that we send with it.\n    function transferWithoutValue(address receiver) payable public {\n        require(accounts[msg.sender] >= msg.value);\n        require(accounts[receiver] + msg.value >= accounts[receiver]);\n        accounts[msg.sender] -= msg.value;\n        accounts[receiver] += msg.value;\n    }\n}\n",
  "sourcePath": "/home/FINTECHINNOVATION.LAN/vstepanov/sublime/solidity_course/contracts/archived/SimpleToken.sol",
  "compiler": {
    "name": "solc",
    "version": "0.5.16+commit.9c3226ce.Emscripten.clang"
  },
  "schemaVersion": "3.4.7",
  "updatedAt": "2022-05-04T14:16:46.348Z",
  "devdoc": {
    "methods": {}
  },
  "userdoc": {
    "methods": {
      "balance(address)": {
        "notice": "Create a function that returns the balance of a certain account"
      },
      "supply()": {
        "notice": "Create a function that returns the available tokens supply"
      }
    },
    "notice": "after lecture 18.Mappings in solidity Create a function that returns the balance of a certain account Create a function that returns the available tokens supply Create a payable function that receives ether and it will send tokens to the sender."
  }
}