{
  "contractName": "VariableExamples",
  "abi": [
    {
      "constant": true,
      "inputs": [],
      "name": "awesome1",
      "outputs": [
        {
          "internalType": "bytes32",
          "name": "",
          "type": "bytes32"
        }
      ],
      "payable": false,
      "stateMutability": "view",
      "type": "function"
    },
    {
      "constant": true,
      "inputs": [],
      "name": "awesome2",
      "outputs": [
        {
          "internalType": "string",
          "name": "",
          "type": "string"
        }
      ],
      "payable": false,
      "stateMutability": "view",
      "type": "function"
    },
    {
      "constant": true,
      "inputs": [],
      "name": "number",
      "outputs": [
        {
          "internalType": "uint256",
          "name": "",
          "type": "uint256"
        }
      ],
      "payable": false,
      "stateMutability": "view",
      "type": "function"
    },
    {
      "constant": true,
      "inputs": [],
      "name": "owner",
      "outputs": [
        {
          "internalType": "address",
          "name": "",
          "type": "address"
        }
      ],
      "payable": false,
      "stateMutability": "view",
      "type": "function"
    },
    {
      "constant": true,
      "inputs": [],
      "name": "switchedOn",
      "outputs": [
        {
          "internalType": "bool",
          "name": "",
          "type": "bool"
        }
      ],
      "payable": false,
      "stateMutability": "view",
      "type": "function"
    }
  ],
  "bytecode": "0x608060405260016000806101000a81548160ff02191690831515021790555033600060016101000a81548173ffffffffffffffffffffffffffffffffffffffff021916908373ffffffffffffffffffffffffffffffffffffffff16021790555060086001557f536f6c69646974792069732061737765736f6d652100000000000000000000006002556040518060400160405280601581526020017f536f6c69646974792069732061737765736f6d65210000000000000000000000815250600390805190602001906100d39291906100e6565b503480156100e057600080fd5b5061018b565b828054600181600116156101000203166002900490600052602060002090601f016020900481019282601f1061012757805160ff1916838001178555610155565b82800160010185558215610155579182015b82811115610154578251825591602001919060010190610139565b5b5090506101629190610166565b5090565b61018891905b8082111561018457600081600090555060010161016c565b5090565b90565b61029e8061019a6000396000f3fe608060405234801561001057600080fd5b50600436106100575760003560e01c8063501806051461005c5780638381f58a146100df5780638da5cb5b146100fd578063d395c95e14610147578063da8db23514610169575b600080fd5b610064610187565b6040518080602001828103825283818151815260200191508051906020019080838360005b838110156100a4578082015181840152602081019050610089565b50505050905090810190601f1680156100d15780820380516001836020036101000a031916815260200191505b509250505060405180910390f35b6100e7610225565b6040518082815260200191505060405180910390f35b61010561022b565b604051808273ffffffffffffffffffffffffffffffffffffffff1673ffffffffffffffffffffffffffffffffffffffff16815260200191505060405180910390f35b61014f610251565b604051808215151515815260200191505060405180910390f35b610171610263565b6040518082815260200191505060405180910390f35b60038054600181600116156101000203166002900480601f01602080910402602001604051908101604052809291908181526020018280546001816001161561010002031660029004801561021d5780601f106101f25761010080835404028352916020019161021d565b820191906000526020600020905b81548152906001019060200180831161020057829003601f168201915b505050505081565b60015481565b600060019054906101000a900473ffffffffffffffffffffffffffffffffffffffff1681565b6000809054906101000a900460ff1681565b6002548156fea265627a7a72315820aa07e4779c92b8cb9168e77a07119afd52cdf0d300bd0232143b536f24400a7a64736f6c63430005100032",
  "source": "// SPDX-License-Identifier: GPL-3.0\npragma solidity >=0.4.22 <0.9.0;\n\n\ncontract VariableExamples {\n    bool public switchedOn = true;\n    address public owner = msg.sender;\n    uint public number = 8;\n    bytes32 public awesome1 = \"Solidity is aswesome!\";\n    string public awesome2 = \"Solidity is aswesome!\";\n}\n",
  "sourcePath": "/home/FINTECHINNOVATION.LAN/vstepanov/sublime/solidity_course/contracts/VariableExamples.sol",
  "compiler": {
    "name": "solc",
    "version": "0.5.16+commit.9c3226ce.Emscripten.clang"
  },
  "schemaVersion": "3.4.7",
  "updatedAt": "2022-05-02T19:37:26.765Z",
  "networkType": "ethereum",
  "devdoc": {
    "methods": {}
  },
  "userdoc": {
    "methods": {}
  }
}